:040000000BEF00F012
:100008003882FACF01F0FBCF02F0EBED00F033EFCE
:1000180002F05EEC02F0000E15EC02F0376E232AB7
:10002800330E2318D8A4F7D7000E236E070E3718FF
:10003800D8A409D0222A040E2218D8A402D0000E6F
:10004800226E010E356E2204D8B442D04BD0355002
:10005800D8A407D0202A3C0E2018D8A443D0000EDC
:1000680019D03504D8A407D0342A190E3418D8A4C6
:1000780039D0000E1CD0212A3C0E2118D8A432D029
:10008800000E1CD03550D8A407D020062028D8A4AC
:1000980029D03B0E206E26D03504D8A40AD0225091
:1000A800D8B407D034063428D8A41CD0170E346E20
:1000B80019D021062128D8A415D03B0E216E12D0C4
:1000C800352A030E3518D8A40DD0000E356E0AD087
:1000D80037500B0AD8B4F4D7060AD8B4B8D7030AED
:1000E800D8B4D0D72204D8A412D01F50D8B40FD077
:1000F8003550D8A405D0000E276E000E266E60D0AD
:100108003504D8A45DD0000E256E000E58D020C04E
:100118000FF0106A000E126E0A0E116EB1EC01F0AB
:100128002A0E0F24D96E000E1020DA6EDF50276ECB
:1001380020C00FF0106A000E126E0A0E116E6FECDE
:1001480001F02A0E0F24D96E000E1020DA6EDF504F
:10015800266E1F04D8A412D034C00FF0106A000E07
:10016800126E0A0E116EB1EC01F02A0E0F24D96E30
:10017800000E1020DA6EDF50100910D034C00FF0D6
:10018800106A000E126E0A0E116EB1EC01F02A0E02
:100198000F24D96E000E1020DA6EDF50256E34C0A1
:1001A8000FF0106A000E126E0A0E116E6FEC01F05D
:1001B8002A0E0F24D96E000E1020DA6EDF50246E3E
:1001C800240E0F6E000E106EE9EC01F024D7060025
:1001D800E9CF03F0EACF04F0E1CF05F0E2CF06F073
:1001E800D9CF07F0DACF08F0F3CF09F0F4CF0AF04F
:1001F800F6CF0BF0F7CF0CF0F8CF0DF0F5CF0EF0EF
:10020800F2A44BD0080ED624D66E000ED720D76E97
:10021800010E1B26000E1C221D221E22710E1B1809
:1002280015E1020E1C181D101E10D8A40FD0000EC8
:100238001B6E000E1C6E000E1D6E000E1E6E1F50F3
:10024800D8A402D0010E01D0000E1F6E010E172691
:10025800000E182219221A22F80E17181DE1240E72
:1002680018181AE119041A10D8A416D0000E176E1F
:10027800000E186E000E196E000E1A6E3B0E2060EE
:1002880002D0202A09D0180E346002D0342A02D0B5
:100298000C0E346E000E206EF2940EC0F5FF0DC0E9
:1002A800F8FF0CC0F7FF0BC0F6FF0AC0F4FF09C047
:1002B800F3FF08C0DAFF07C0D9FF06C0E2FF05C098
:1002C800E1FF04C0EAFF03C0E9FF02C0FBFF01C071
:1002D800FAFF38921100000E146E12AE06D0116C9F
:1002E800121ED8B0122A010E146E10AE06D00F6C72
:1002F800101ED8B0102A010E141A000E166E000E29
:10030800156E11501210D8B41CD0010E136E04D003
:10031800D89011361236132A12AEFAD7D89015365D
:10032800163611500F5C12501058D8A005D0115035
:100338000F5E1250105A1580D89012321132132EB7
:10034800EDD71450D8B404D0156C161ED8B0162AA0
:1003580015C00FF016C010F01200000E146E10AE8B
:1003680006D00F6C101ED8B0102A010E146E12AEF3
:1003780004D0116C121ED8B0122A11501210D8B421
:1003880018D0010E136E04D0D89011361236132AE5
:1003980012AEFAD711500F5C12501058D8A004D0E2
:1003A80011500F5E1250105AD89012321132132E7B
:1003B800F1D71450D8B404D00F6C101ED8B0102A3E
:1003C8000FC00FF010C010F01200000E156E030ED3
:1003D800156401D012001550010DF3500F24D96E89
:1003E800F4501020DA6EDF50836E15C011F0010E44
:1003F800126E112A02D0D8901236112EFCD78050D6
:10040800F00B1210806E030E146EE80E136E1306B6
:10041800D8A014061328FBE11428D8A4F8D7152A65
:10042800D6D70F6E0F04D8A415D082500F0B0F0A21
:10043800D8B408D03650D8B405D0000E366E8250E5
:100448000F0B120082500F0B0F0AD8A406D0010E12
:10045800366E03D00F50D8B4F2D7FF0E120000EE5C
:1004680017F0130EEE6AE806FDE1E60EF66E040ECE
:10047800F76E000EF86E00EE2AF010EE0DF009008F
:10048800F5CFEEFFE550E150FAE138903892000ED2
:10049800F86E00010DEF00F0000ED76E060ED66E56
:1004A800D59AF294D596D594D582D580F28AD58EF0
:1004B800F28C12000F0EC16E000E936E000E816E4C
:1004C8006AEC02F050EC02F0F28E1200000E956E0B
:1004D8009250F00B926E8050F00B806E1200E72164
:0B04E800CB6B2D6EEE23EF6F0C0201BA
:00000001FF
